{
  "_format": "hh-sol-artifact-1",
  "contractName": "ServiceSubscriptionSystem",
  "sourceName": "contracts/subscription.sol",
  "abi": [
    {
      "inputs": [
        {
          "internalType": "address",
          "name": "_paymentToken",
          "type": "address"
        },
        {
          "internalType": "address",
          "name": "_priceFeed",
          "type": "address"
        }
      ],
      "stateMutability": "nonpayable",
      "type": "constructor"
    },
    {
      "inputs": [],
      "name": "EnforcedPause",
      "type": "error"
    },
    {
      "inputs": [],
      "name": "ExpectedPause",
      "type": "error"
    },
    {
      "inputs": [
        {
          "internalType": "address",
          "name": "owner",
          "type": "address"
        }
      ],
      "name": "OwnableInvalidOwner",
      "type": "error"
    },
    {
      "inputs": [
        {
          "internalType": "address",
          "name": "account",
          "type": "address"
        }
      ],
      "name": "OwnableUnauthorizedAccount",
      "type": "error"
    },
    {
      "inputs": [],
      "name": "ReentrancyGuardReentrantCall",
      "type": "error"
    },
    {
      "anonymous": false,
      "inputs": [
        {
          "indexed": true,
          "internalType": "address",
          "name": "previousOwner",
          "type": "address"
        },
        {
          "indexed": true,
          "internalType": "address",
          "name": "newOwner",
          "type": "address"
        }
      ],
      "name": "OwnershipTransferred",
      "type": "event"
    },
    {
      "anonymous": false,
      "inputs": [
        {
          "indexed": false,
          "internalType": "address",
          "name": "account",
          "type": "address"
        }
      ],
      "name": "Paused",
      "type": "event"
    },
    {
      "anonymous": false,
      "inputs": [
        {
          "indexed": true,
          "internalType": "address",
          "name": "user",
          "type": "address"
        },
        {
          "indexed": false,
          "internalType": "uint256",
          "name": "serviceId",
          "type": "uint256"
        },
        {
          "indexed": false,
          "internalType": "uint256",
          "name": "amountUSD",
          "type": "uint256"
        },
        {
          "indexed": false,
          "internalType": "uint256",
          "name": "amountToken",
          "type": "uint256"
        }
      ],
      "name": "PaymentProcessed",
      "type": "event"
    },
    {
      "anonymous": false,
      "inputs": [
        {
          "indexed": true,
          "internalType": "uint256",
          "name": "serviceId",
          "type": "uint256"
        },
        {
          "indexed": false,
          "internalType": "uint256",
          "name": "planId",
          "type": "uint256"
        },
        {
          "indexed": false,
          "internalType": "string",
          "name": "name",
          "type": "string"
        },
        {
          "indexed": false,
          "internalType": "uint256",
          "name": "priceUSD",
          "type": "uint256"
        },
        {
          "indexed": false,
          "internalType": "uint256",
          "name": "planDuration",
          "type": "uint256"
        }
      ],
      "name": "PlanAdded",
      "type": "event"
    },
    {
      "anonymous": false,
      "inputs": [
        {
          "indexed": true,
          "internalType": "uint256",
          "name": "serviceId",
          "type": "uint256"
        },
        {
          "indexed": false,
          "internalType": "uint256",
          "name": "planId",
          "type": "uint256"
        },
        {
          "indexed": false,
          "internalType": "uint256",
          "name": "newPriceUSD",
          "type": "uint256"
        }
      ],
      "name": "PriceUpdated",
      "type": "event"
    },
    {
      "anonymous": false,
      "inputs": [
        {
          "indexed": true,
          "internalType": "uint256",
          "name": "serviceId",
          "type": "uint256"
        },
        {
          "indexed": false,
          "internalType": "string",
          "name": "name",
          "type": "string"
        }
      ],
      "name": "ServiceProviderAdded",
      "type": "event"
    },
    {
      "anonymous": false,
      "inputs": [
        {
          "indexed": true,
          "internalType": "address",
          "name": "user",
          "type": "address"
        },
        {
          "indexed": false,
          "internalType": "uint256",
          "name": "serviceId",
          "type": "uint256"
        },
        {
          "indexed": false,
          "internalType": "uint256",
          "name": "planId",
          "type": "uint256"
        },
        {
          "indexed": false,
          "internalType": "bytes32",
          "name": "virtualCardId",
          "type": "bytes32"
        }
      ],
      "name": "SubscriptionCreated",
      "type": "event"
    },
    {
      "anonymous": false,
      "inputs": [
        {
          "indexed": true,
          "internalType": "address",
          "name": "user",
          "type": "address"
        },
        {
          "indexed": false,
          "internalType": "uint256",
          "name": "serviceId",
          "type": "uint256"
        },
        {
          "indexed": false,
          "internalType": "uint256",
          "name": "oldPlanId",
          "type": "uint256"
        },
        {
          "indexed": false,
          "internalType": "uint256",
          "name": "newPlanId",
          "type": "uint256"
        }
      ],
      "name": "SubscriptionUpgraded",
      "type": "event"
    },
    {
      "anonymous": false,
      "inputs": [
        {
          "indexed": false,
          "internalType": "address",
          "name": "account",
          "type": "address"
        }
      ],
      "name": "Unpaused",
      "type": "event"
    },
    {
      "anonymous": false,
      "inputs": [
        {
          "indexed": true,
          "internalType": "bytes32",
          "name": "virtualCardId",
          "type": "bytes32"
        },
        {
          "indexed": false,
          "internalType": "uint256",
          "name": "amountUSD",
          "type": "uint256"
        }
      ],
      "name": "VirtualCardFunded",
      "type": "event"
    },
    {
      "inputs": [],
      "name": "PRICE_PRECISION",
      "outputs": [
        {
          "internalType": "uint256",
          "name": "",
          "type": "uint256"
        }
      ],
      "stateMutability": "view",
      "type": "function"
    },
    {
      "inputs": [
        {
          "internalType": "uint256",
          "name": "_serviceId",
          "type": "uint256"
        },
        {
          "internalType": "string",
          "name": "_planName",
          "type": "string"
        },
        {
          "internalType": "uint256",
          "name": "_priceUSD",
          "type": "uint256"
        },
        {
          "internalType": "uint256",
          "name": "_planDuration",
          "type": "uint256"
        }
      ],
      "name": "addServicePlan",
      "outputs": [],
      "stateMutability": "nonpayable",
      "type": "function"
    },
    {
      "inputs": [
        {
          "internalType": "string",
          "name": "_name",
          "type": "string"
        },
        {
          "internalType": "address",
          "name": "_priceUpdater",
          "type": "address"
        }
      ],
      "name": "addServiceProvider",
      "outputs": [],
      "stateMutability": "nonpayable",
      "type": "function"
    },
    {
      "inputs": [
        {
          "internalType": "uint256",
          "name": "_serviceId",
          "type": "uint256"
        },
        {
          "internalType": "uint256",
          "name": "_newPlanId",
          "type": "uint256"
        },
        {
          "internalType": "bytes32",
          "name": "_virtualCardId",
          "type": "bytes32"
        }
      ],
      "name": "changePlan",
      "outputs": [],
      "stateMutability": "nonpayable",
      "type": "function"
    },
    {
      "inputs": [
        {
          "internalType": "address",
          "name": "_user",
          "type": "address"
        },
        {
          "internalType": "uint256",
          "name": "_serviceId",
          "type": "uint256"
        }
      ],
      "name": "getSubscriptionDetails",
      "outputs": [
        {
          "internalType": "uint256",
          "name": "planId",
          "type": "uint256"
        },
        {
          "internalType": "uint256",
          "name": "nextPayment",
          "type": "uint256"
        },
        {
          "internalType": "uint256",
          "name": "priceUSD",
          "type": "uint256"
        },
        {
          "internalType": "enum ServiceSubscriptionSystem.SubscriptionStatus",
          "name": "status",
          "type": "uint8"
        }
      ],
      "stateMutability": "view",
      "type": "function"
    },
    {
      "inputs": [
        {
          "internalType": "uint256",
          "name": "_usdAmount",
          "type": "uint256"
        }
      ],
      "name": "getTokenAmount",
      "outputs": [
        {
          "internalType": "uint256",
          "name": "",
          "type": "uint256"
        }
      ],
      "stateMutability": "view",
      "type": "function"
    },
    {
      "inputs": [],
      "name": "owner",
      "outputs": [
        {
          "internalType": "address",
          "name": "",
          "type": "address"
        }
      ],
      "stateMutability": "view",
      "type": "function"
    },
    {
      "inputs": [],
      "name": "paused",
      "outputs": [
        {
          "internalType": "bool",
          "name": "",
          "type": "bool"
        }
      ],
      "stateMutability": "view",
      "type": "function"
    },
    {
      "inputs": [],
      "name": "paymentToken",
      "outputs": [
        {
          "internalType": "contract IERC20",
          "name": "",
          "type": "address"
        }
      ],
      "stateMutability": "view",
      "type": "function"
    },
    {
      "inputs": [],
      "name": "priceFeed",
      "outputs": [
        {
          "internalType": "contract IPriceFeed",
          "name": "",
          "type": "address"
        }
      ],
      "stateMutability": "view",
      "type": "function"
    },
    {
      "inputs": [
        {
          "internalType": "address",
          "name": "_user",
          "type": "address"
        },
        {
          "internalType": "uint256",
          "name": "_serviceId",
          "type": "uint256"
        }
      ],
      "name": "processPayment",
      "outputs": [],
      "stateMutability": "nonpayable",
      "type": "function"
    },
    {
      "inputs": [],
      "name": "renounceOwnership",
      "outputs": [],
      "stateMutability": "nonpayable",
      "type": "function"
    },
    {
      "inputs": [],
      "name": "serviceFeePercent",
      "outputs": [
        {
          "internalType": "uint256",
          "name": "",
          "type": "uint256"
        }
      ],
      "stateMutability": "view",
      "type": "function"
    },
    {
      "inputs": [],
      "name": "serviceProviderCount",
      "outputs": [
        {
          "internalType": "uint256",
          "name": "",
          "type": "uint256"
        }
      ],
      "stateMutability": "view",
      "type": "function"
    },
    {
      "inputs": [
        {
          "internalType": "uint256",
          "name": "",
          "type": "uint256"
        }
      ],
      "name": "serviceProviders",
      "outputs": [
        {
          "internalType": "string",
          "name": "name",
          "type": "string"
        },
        {
          "internalType": "bool",
          "name": "active",
          "type": "bool"
        },
        {
          "internalType": "address",
          "name": "priceUpdater",
          "type": "address"
        },
        {
          "internalType": "uint256",
          "name": "planCount",
          "type": "uint256"
        }
      ],
      "stateMutability": "view",
      "type": "function"
    },
    {
      "inputs": [
        {
          "internalType": "uint256",
          "name": "_newFeePercent",
          "type": "uint256"
        }
      ],
      "name": "setServiceFee",
      "outputs": [],
      "stateMutability": "nonpayable",
      "type": "function"
    },
    {
      "inputs": [
        {
          "internalType": "uint256",
          "name": "_serviceId",
          "type": "uint256"
        },
        {
          "internalType": "uint256",
          "name": "_planId",
          "type": "uint256"
        },
        {
          "internalType": "bytes32",
          "name": "_virtualCardId",
          "type": "bytes32"
        }
      ],
      "name": "subscribe",
      "outputs": [],
      "stateMutability": "nonpayable",
      "type": "function"
    },
    {
      "inputs": [
        {
          "internalType": "address",
          "name": "newOwner",
          "type": "address"
        }
      ],
      "name": "transferOwnership",
      "outputs": [],
      "stateMutability": "nonpayable",
      "type": "function"
    },
    {
      "inputs": [
        {
          "internalType": "uint256",
          "name": "_serviceId",
          "type": "uint256"
        },
        {
          "internalType": "uint256",
          "name": "_planId",
          "type": "uint256"
        },
        {
          "internalType": "uint256",
          "name": "_newPriceUSD",
          "type": "uint256"
        }
      ],
      "name": "updatePlanPrice",
      "outputs": [],
      "stateMutability": "nonpayable",
      "type": "function"
    },
    {
      "inputs": [
        {
          "internalType": "address",
          "name": "",
          "type": "address"
        },
        {
          "internalType": "uint256",
          "name": "",
          "type": "uint256"
        }
      ],
      "name": "userSubscriptions",
      "outputs": [
        {
          "internalType": "uint256",
          "name": "serviceId",
          "type": "uint256"
        },
        {
          "internalType": "uint256",
          "name": "planId",
          "type": "uint256"
        },
        {
          "internalType": "uint256",
          "name": "startTime",
          "type": "uint256"
        },
        {
          "internalType": "uint256",
          "name": "nextPaymentTime",
          "type": "uint256"
        },
        {
          "internalType": "bytes32",
          "name": "virtualCardId",
          "type": "bytes32"
        },
        {
          "internalType": "uint256",
          "name": "lastPriceUSD",
          "type": "uint256"
        },
        {
          "internalType": "enum ServiceSubscriptionSystem.SubscriptionStatus",
          "name": "status",
          "type": "uint8"
        },
        {
          "internalType": "bool",
          "name": "autoRenew",
          "type": "bool"
        }
      ],
      "stateMutability": "view",
      "type": "function"
    },
    {
      "inputs": [
        {
          "internalType": "bytes32",
          "name": "",
          "type": "bytes32"
        }
      ],
      "name": "virtualCards",
      "outputs": [
        {
          "internalType": "bool",
          "name": "",
          "type": "bool"
        }
      ],
      "stateMutability": "view",
      "type": "function"
    },
    {
      "inputs": [
        {
          "internalType": "address",
          "name": "_token",
          "type": "address"
        },
        {
          "internalType": "uint256",
          "name": "_amount",
          "type": "uint256"
        }
      ],
      "name": "withdrawFees",
      "outputs": [],
      "stateMutability": "nonpayable",
      "type": "function"
    }
  ],
  "bytecode": "0x6080604052606460085534801561001557600080fd5b50604051612fa1380380612fa18339818101604052810190610037919061028f565b336001600081905550600073ffffffffffffffffffffffffffffffffffffffff168173ffffffffffffffffffffffffffffffffffffffff16036100b25760006040517f1e4fbdf70000000000000000000000000000000000000000000000000000000081526004016100a991906102de565b60405180910390fd5b6100c18161016660201b60201c565b506000600160146101000a81548160ff02191690831515021790555081600660006101000a81548173ffffffffffffffffffffffffffffffffffffffff021916908373ffffffffffffffffffffffffffffffffffffffff16021790555080600760006101000a81548173ffffffffffffffffffffffffffffffffffffffff021916908373ffffffffffffffffffffffffffffffffffffffff16021790555050506102f9565b6000600160009054906101000a900473ffffffffffffffffffffffffffffffffffffffff16905081600160006101000a81548173ffffffffffffffffffffffffffffffffffffffff021916908373ffffffffffffffffffffffffffffffffffffffff1602179055508173ffffffffffffffffffffffffffffffffffffffff168173ffffffffffffffffffffffffffffffffffffffff167f8be0079c531659141344cd1fd0a4f28419497f9722a3daafe3b4186f6b6457e060405160405180910390a35050565b600080fd5b600073ffffffffffffffffffffffffffffffffffffffff82169050919050565b600061025c82610231565b9050919050565b61026c81610251565b811461027757600080fd5b50565b60008151905061028981610263565b92915050565b600080604083850312156102a6576102a561022c565b5b60006102b48582860161027a565b92505060206102c58582860161027a565b9150509250929050565b6102d881610251565b82525050565b60006020820190506102f360008301846102cf565b92915050565b612c99806103086000396000f3fe608060405234801561001057600080fd5b50600436106101425760003560e01c80638da5cb5b116100b8578063af0abdf01161007c578063af0abdf01461032f578063b1321b1b1461034b578063c2507ac11461037b578063c95d6edc146103ab578063efec22db146103e2578063f2fde38b1461040057610142565b80638da5cb5b1461029d57806395082d25146102bb57806396a58ee9146102d9578063995bc51e146102f5578063ad3b1b471461031357610142565b8063519a929d1161010a578063519a929d146102035780635c975abb1461021f5780635cdf76f81461023d578063715018a614610259578063741bef1a1461026357806378e28e061461028157610142565b80630a02dcc7146101475780630b63fe951461017a5780632a7aa771146101965780633013ce29146101b2578063454bbba9146101d0575b600080fd5b610161600480360381019061015c9190611aa7565b61041c565b6040516101719493929190611bcf565b60405180910390f35b610194600480360381019061018f9190611c47565b610501565b005b6101b060048036038101906101ab9190611c87565b6107c8565b005b6101ba610917565b6040516101c79190611d39565b60405180910390f35b6101ea60048036038101906101e59190611c47565b61093d565b6040516101fa9493929190611dcb565b60405180910390f35b61021d60048036038101906102189190611e46565b6109f4565b005b610227610de0565b6040516102349190611e99565b60405180910390f35b61025760048036038101906102529190611aa7565b610df7565b005b610261610e4e565b005b61026b610e62565b6040516102789190611ed5565b60405180910390f35b61029b60048036038101906102969190612025565b610e88565b005b6102a5610f70565b6040516102b29190612081565b60405180910390f35b6102c3610f9a565b6040516102d0919061209c565b60405180910390f35b6102f360048036038101906102ee91906120b7565b610fa2565b005b6102fd611173565b60405161030a919061209c565b60405180910390f35b61032d60048036038101906103289190611c47565b611179565b005b61034960048036038101906103449190611e46565b61120b565b005b6103656004803603810190610360919061213a565b61162f565b6040516103729190611e99565b60405180910390f35b61039560048036038101906103909190611aa7565b61164f565b6040516103a2919061209c565b60405180910390f35b6103c560048036038101906103c09190611c47565b61177c565b6040516103d9989796959493929190612176565b60405180910390f35b6103ea6117eb565b6040516103f7919061209c565b60405180910390f35b61041a600480360381019061041591906121f4565b6117f1565b005b600260205280600052604060002060009150905080600001805461043f90612250565b80601f016020809104026020016040519081016040528092919081815260200182805461046b90612250565b80156104b85780601f1061048d576101008083540402835291602001916104b8565b820191906000526020600020905b81548152906001019060200180831161049b57829003601f168201915b5050505050908060010160009054906101000a900460ff16908060010160019054906101000a900473ffffffffffffffffffffffffffffffffffffffff16908060030154905084565b610509611877565b6105116118bd565b6000600360008473ffffffffffffffffffffffffffffffffffffffff1673ffffffffffffffffffffffffffffffffffffffff168152602001908152602001600020600083815260200190815260200160002090506001600481111561057957610578611d54565b5b8160060160009054906101000a900460ff16600481111561059d5761059c611d54565b5b146105dd576040517f08c379a00000000000000000000000000000000000000000000000000000000081526004016105d4906122cd565b60405180910390fd5b8060030154421015610624576040517f08c379a000000000000000000000000000000000000000000000000000000000815260040161061b90612339565b60405180910390fd5b60006002600084815260200190815260200160002060020160008360010154815260200190815260200160002090506000610662826001015461164f565b9050600660009054906101000a900473ffffffffffffffffffffffffffffffffffffffff1673ffffffffffffffffffffffffffffffffffffffff166323b872dd8630846040518463ffffffff1660e01b81526004016106c393929190612359565b6020604051808303816000875af11580156106e2573d6000803e3d6000fd5b505050506040513d601f19601f8201168201806040525081019061070691906123bc565b1561078b5781600301544261071b9190612418565b8360030181905550816001015483600501819055508473ffffffffffffffffffffffffffffffffffffffff167fc1af30fe4cadac62164a69345dcb921d4676a6a794279f7ab612aeff8d9be32d8584600101548460405161077e9392919061244c565b60405180910390a26107b9565b60028360060160006101000a81548160ff021916908360048111156107b3576107b2611d54565b5b02179055505b5050506107c46118fe565b5050565b60006002600085815260200190815260200160002090508060010160019054906101000a900473ffffffffffffffffffffffffffffffffffffffff1673ffffffffffffffffffffffffffffffffffffffff163373ffffffffffffffffffffffffffffffffffffffff16148061086f5750610840610f70565b73ffffffffffffffffffffffffffffffffffffffff163373ffffffffffffffffffffffffffffffffffffffff16145b6108ae576040517f08c379a00000000000000000000000000000000000000000000000000000000081526004016108a5906124cf565b60405180910390fd5b818160020160006001866108c291906124ef565b815260200190815260200160002060010181905550837f15819dd2fd9f6418b142e798d08a18d0bf06ea368f4480b7b0d3f75bd966bc488484604051610909929190612523565b60405180910390a250505050565b600660009054906101000a900473ffffffffffffffffffffffffffffffffffffffff1681565b6000806000806000600360008873ffffffffffffffffffffffffffffffffffffffff1673ffffffffffffffffffffffffffffffffffffffff168152602001908152602001600020600087815260200190815260200160002090508060010154816003015460026000898152602001908152602001600020600201600084600101548152602001908152602001600020600101548360060160009054906101000a900460ff1694509450945094505092959194509250565b6109fc611877565b610a046118bd565b6000600360003373ffffffffffffffffffffffffffffffffffffffff1673ffffffffffffffffffffffffffffffffffffffff1681526020019081526020016000206000858152602001908152602001600020905060016004811115610a6c57610a6b611d54565b5b8160060160009054906101000a900460ff166004811115610a9057610a8f611d54565b5b14610ad0576040517f08c379a0000000000000000000000000000000000000000000000000000000008152600401610ac7906122cd565b60405180910390fd5b6004600083815260200190815260200160002060009054906101000a900460ff1615610b31576040517f08c379a0000000000000000000000000000000000000000000000000000000008152600401610b2890612598565b60405180910390fd5b6000600260008681526020019081526020016000209050600081600201600086815260200190815260200160002090508060020160009054906101000a900460ff16610bb2576040517f08c379a0000000000000000000000000000000000000000000000000000000008152600401610ba990612604565b60405180910390fd5b6000600260008881526020019081526020016000206002016000856001015481526020019081526020016000206001015490506000826001015490506000828211610bfe576000610c13565b610c128383610c0d91906124ef565b61164f565b5b90506000811115610d0057600660009054906101000a900473ffffffffffffffffffffffffffffffffffffffff1673ffffffffffffffffffffffffffffffffffffffff166323b872dd3330846040518463ffffffff1660e01b8152600401610c7d93929190612359565b6020604051808303816000875af1158015610c9c573d6000803e3d6000fd5b505050506040513d601f19601f82011682018060405250810190610cc091906123bc565b610cff576040517f08c379a0000000000000000000000000000000000000000000000000000000008152600401610cf690612670565b60405180910390fd5b5b6000600460008860040154815260200190815260200160002060006101000a81548160ff02191690831515021790555060016004600089815260200190815260200160002060006101000a81548160ff0219169083151502179055508786600101819055508686600401819055508186600501819055503373ffffffffffffffffffffffffffffffffffffffff167f7bd0f397cad502ff77ef77218a9bc164a74f31a190560438785c85c38c3f64dd8a88600101548b604051610dc59392919061244c565b60405180910390a2505050505050610ddb6118fe565b505050565b6000600160149054906101000a900460ff16905090565b610dff611908565b6103e8811115610e44576040517f08c379a0000000000000000000000000000000000000000000000000000000008152600401610e3b906126dc565b60405180910390fd5b8060088190555050565b610e56611908565b610e60600061198f565b565b600760009054906101000a900473ffffffffffffffffffffffffffffffffffffffff1681565b610e90611908565b600560008154610e9f906126fc565b919050819055506000600260006005548152602001908152602001600020905082816000019081610ed091906128e6565b50818160010160016101000a81548173ffffffffffffffffffffffffffffffffffffffff021916908373ffffffffffffffffffffffffffffffffffffffff16021790555060018160010160006101000a81548160ff0219169083151502179055506005547f436faa539a6f97cdab916ae1e7e9a7c3f39bb4aefad3f8aa2ad64abdec6d879584604051610f6391906129b8565b60405180910390a2505050565b6000600160009054906101000a900473ffffffffffffffffffffffffffffffffffffffff16905090565b6305f5e10081565b60006002600086815260200190815260200160002090508060010160019054906101000a900473ffffffffffffffffffffffffffffffffffffffff1673ffffffffffffffffffffffffffffffffffffffff163373ffffffffffffffffffffffffffffffffffffffff161480611049575061101a610f70565b73ffffffffffffffffffffffffffffffffffffffff163373ffffffffffffffffffffffffffffffffffffffff16145b611088576040517f08c379a000000000000000000000000000000000000000000000000000000000815260040161107f906124cf565b60405180910390fd5b8060030160008154611099906126fc565b919050819055506040518060800160405280858152602001848152602001600115158152602001838152508160020160008360030154815260200190815260200160002060008201518160000190816110f291906128e6565b506020820151816001015560408201518160020160006101000a81548160ff02191690831515021790555060608201518160030155905050847ff2f9a6817c57e90c3f87e80e6fe4e0d3dab217f1a0fc2a274f78217f780fcc62826003015486868660405161116494939291906129da565b60405180910390a25050505050565b60085481565b611181611908565b8173ffffffffffffffffffffffffffffffffffffffff1663a9059cbb6111a5610f70565b836040518363ffffffff1660e01b81526004016111c3929190612a26565b6020604051808303816000875af11580156111e2573d6000803e3d6000fd5b505050506040513d601f19601f8201168201806040525081019061120691906123bc565b505050565b611213611877565b61121b6118bd565b6004600082815260200190815260200160002060009054906101000a900460ff161561127c576040517f08c379a000000000000000000000000000000000000000000000000000000000815260040161127390612598565b60405180910390fd5b6000600260008581526020019081526020016000209050600081600201600085815260200190815260200160002090508160010160009054906101000a900460ff1680156112d857508060020160009054906101000a900460ff165b611317576040517f08c379a000000000000000000000000000000000000000000000000000000000815260040161130e90612a9b565b60405180910390fd5b6000611326826001015461164f565b9050600660009054906101000a900473ffffffffffffffffffffffffffffffffffffffff1673ffffffffffffffffffffffffffffffffffffffff166323b872dd3330846040518463ffffffff1660e01b815260040161138793929190612359565b6020604051808303816000875af11580156113a6573d6000803e3d6000fd5b505050506040513d601f19601f820116820180604052508101906113ca91906123bc565b611409576040517f08c379a000000000000000000000000000000000000000000000000000000000815260040161140090612670565b60405180910390fd5b60016004600086815260200190815260200160002060006101000a81548160ff0219169083151502179055506040518061010001604052808781526020018681526020014281526020018360030154426114639190612418565b8152602001858152602001836001015481526020016001600481111561148c5761148b611d54565b5b815260200160011515815250600360003373ffffffffffffffffffffffffffffffffffffffff1673ffffffffffffffffffffffffffffffffffffffff1681526020019081526020016000206000888152602001908152602001600020600082015181600001556020820151816001015560408201518160020155606082015181600301556080820151816004015560a0820151816005015560c08201518160060160006101000a81548160ff0219169083600481111561154f5761154e611d54565b5b021790555060e08201518160060160016101000a81548160ff0219169083151502179055509050503373ffffffffffffffffffffffffffffffffffffffff167fc55ef9cb7d81a55e4c24fc06de67ec6ed65f773d181f39b315f653a3060935c38787876040516115c193929190612abb565b60405180910390a23373ffffffffffffffffffffffffffffffffffffffff167fc1af30fe4cadac62164a69345dcb921d4676a6a794279f7ab612aeff8d9be32d878460010154846040516116179392919061244c565b60405180910390a250505061162a6118fe565b505050565b60046020528060005260406000206000915054906101000a900460ff1681565b600080600760009054906101000a900473ffffffffffffffffffffffffffffffffffffffff1673ffffffffffffffffffffffffffffffffffffffff16638e15f4736040518163ffffffff1660e01b8152600401602060405180830381865afa1580156116bf573d6000803e3d6000fd5b505050506040513d601f19601f820116820180604052508101906116e39190612b28565b905060008113611728576040517f08c379a000000000000000000000000000000000000000000000000000000000815260040161171f90612ba1565b60405180910390fd5b6000816305f5e1008561173b9190612bc1565b6117459190612c32565b905060006127106008548361175a9190612bc1565b6117649190612c32565b905080826117729190612418565b9350505050919050565b6003602052816000526040600020602052806000526040600020600091509150508060000154908060010154908060020154908060030154908060040154908060050154908060060160009054906101000a900460ff16908060060160019054906101000a900460ff16905088565b60055481565b6117f9611908565b600073ffffffffffffffffffffffffffffffffffffffff168173ffffffffffffffffffffffffffffffffffffffff160361186b5760006040517f1e4fbdf70000000000000000000000000000000000000000000000000000000081526004016118629190612081565b60405180910390fd5b6118748161198f565b50565b6002600054036118b3576040517f3ee5aeb500000000000000000000000000000000000000000000000000000000815260040160405180910390fd5b6002600081905550565b6118c5610de0565b156118fc576040517fd93c066500000000000000000000000000000000000000000000000000000000815260040160405180910390fd5b565b6001600081905550565b611910611a55565b73ffffffffffffffffffffffffffffffffffffffff1661192e610f70565b73ffffffffffffffffffffffffffffffffffffffff161461198d57611951611a55565b6040517f118cdaa70000000000000000000000000000000000000000000000000000000081526004016119849190612081565b60405180910390fd5b565b6000600160009054906101000a900473ffffffffffffffffffffffffffffffffffffffff16905081600160006101000a81548173ffffffffffffffffffffffffffffffffffffffff021916908373ffffffffffffffffffffffffffffffffffffffff1602179055508173ffffffffffffffffffffffffffffffffffffffff168173ffffffffffffffffffffffffffffffffffffffff167f8be0079c531659141344cd1fd0a4f28419497f9722a3daafe3b4186f6b6457e060405160405180910390a35050565b600033905090565b6000604051905090565b600080fd5b600080fd5b6000819050919050565b611a8481611a71565b8114611a8f57600080fd5b50565b600081359050611aa181611a7b565b92915050565b600060208284031215611abd57611abc611a67565b5b6000611acb84828501611a92565b91505092915050565b600081519050919050565b600082825260208201905092915050565b60005b83811015611b0e578082015181840152602081019050611af3565b60008484015250505050565b6000601f19601f8301169050919050565b6000611b3682611ad4565b611b408185611adf565b9350611b50818560208601611af0565b611b5981611b1a565b840191505092915050565b60008115159050919050565b611b7981611b64565b82525050565b600073ffffffffffffffffffffffffffffffffffffffff82169050919050565b6000611baa82611b7f565b9050919050565b611bba81611b9f565b82525050565b611bc981611a71565b82525050565b60006080820190508181036000830152611be98187611b2b565b9050611bf86020830186611b70565b611c056040830185611bb1565b611c126060830184611bc0565b95945050505050565b611c2481611b9f565b8114611c2f57600080fd5b50565b600081359050611c4181611c1b565b92915050565b60008060408385031215611c5e57611c5d611a67565b5b6000611c6c85828601611c32565b9250506020611c7d85828601611a92565b9150509250929050565b600080600060608486031215611ca057611c9f611a67565b5b6000611cae86828701611a92565b9350506020611cbf86828701611a92565b9250506040611cd086828701611a92565b9150509250925092565b6000819050919050565b6000611cff611cfa611cf584611b7f565b611cda565b611b7f565b9050919050565b6000611d1182611ce4565b9050919050565b6000611d2382611d06565b9050919050565b611d3381611d18565b82525050565b6000602082019050611d4e6000830184611d2a565b92915050565b7f4e487b7100000000000000000000000000000000000000000000000000000000600052602160045260246000fd5b60058110611d9457611d93611d54565b5b50565b6000819050611da582611d83565b919050565b6000611db582611d97565b9050919050565b611dc581611daa565b82525050565b6000608082019050611de06000830187611bc0565b611ded6020830186611bc0565b611dfa6040830185611bc0565b611e076060830184611dbc565b95945050505050565b6000819050919050565b611e2381611e10565b8114611e2e57600080fd5b50565b600081359050611e4081611e1a565b92915050565b600080600060608486031215611e5f57611e5e611a67565b5b6000611e6d86828701611a92565b9350506020611e7e86828701611a92565b9250506040611e8f86828701611e31565b9150509250925092565b6000602082019050611eae6000830184611b70565b92915050565b6000611ebf82611d06565b9050919050565b611ecf81611eb4565b82525050565b6000602082019050611eea6000830184611ec6565b92915050565b600080fd5b600080fd5b7f4e487b7100000000000000000000000000000000000000000000000000000000600052604160045260246000fd5b611f3282611b1a565b810181811067ffffffffffffffff82111715611f5157611f50611efa565b5b80604052505050565b6000611f64611a5d565b9050611f708282611f29565b919050565b600067ffffffffffffffff821115611f9057611f8f611efa565b5b611f9982611b1a565b9050602081019050919050565b82818337600083830152505050565b6000611fc8611fc384611f75565b611f5a565b905082815260208101848484011115611fe457611fe3611ef5565b5b611fef848285611fa6565b509392505050565b600082601f83011261200c5761200b611ef0565b5b813561201c848260208601611fb5565b91505092915050565b6000806040838503121561203c5761203b611a67565b5b600083013567ffffffffffffffff81111561205a57612059611a6c565b5b61206685828601611ff7565b925050602061207785828601611c32565b9150509250929050565b60006020820190506120966000830184611bb1565b92915050565b60006020820190506120b16000830184611bc0565b92915050565b600080600080608085870312156120d1576120d0611a67565b5b60006120df87828801611a92565b945050602085013567ffffffffffffffff811115612100576120ff611a6c565b5b61210c87828801611ff7565b935050604061211d87828801611a92565b925050606061212e87828801611a92565b91505092959194509250565b6000602082840312156121505761214f611a67565b5b600061215e84828501611e31565b91505092915050565b61217081611e10565b82525050565b60006101008201905061218c600083018b611bc0565b612199602083018a611bc0565b6121a66040830189611bc0565b6121b36060830188611bc0565b6121c06080830187612167565b6121cd60a0830186611bc0565b6121da60c0830185611dbc565b6121e760e0830184611b70565b9998505050505050505050565b60006020828403121561220a57612209611a67565b5b600061221884828501611c32565b91505092915050565b7f4e487b7100000000000000000000000000000000000000000000000000000000600052602260045260246000fd5b6000600282049050600182168061226857607f821691505b60208210810361227b5761227a612221565b5b50919050565b7f496e76616c696420737562736372697074696f6e000000000000000000000000600082015250565b60006122b7601483611adf565b91506122c282612281565b602082019050919050565b600060208201905081810360008301526122e6816122aa565b9050919050565b7f5061796d656e74206e6f74206475650000000000000000000000000000000000600082015250565b6000612323600f83611adf565b915061232e826122ed565b602082019050919050565b6000602082019050818103600083015261235281612316565b9050919050565b600060608201905061236e6000830186611bb1565b61237b6020830185611bb1565b6123886040830184611bc0565b949350505050565b61239981611b64565b81146123a457600080fd5b50565b6000815190506123b681612390565b92915050565b6000602082840312156123d2576123d1611a67565b5b60006123e0848285016123a7565b91505092915050565b7f4e487b7100000000000000000000000000000000000000000000000000000000600052601160045260246000fd5b600061242382611a71565b915061242e83611a71565b9250828201905080821115612446576124456123e9565b5b92915050565b60006060820190506124616000830186611bc0565b61246e6020830185611bc0565b61247b6040830184611bc0565b949350505050565b7f556e617574686f72697a65640000000000000000000000000000000000000000600082015250565b60006124b9600c83611adf565b91506124c482612483565b602082019050919050565b600060208201905081810360008301526124e8816124ac565b9050919050565b60006124fa82611a71565b915061250583611a71565b925082820390508181111561251d5761251c6123e9565b5b92915050565b60006040820190506125386000830185611bc0565b6125456020830184611bc0565b9392505050565b7f4361726420616c726561647920696e2075736500000000000000000000000000600082015250565b6000612582601383611adf565b915061258d8261254c565b602082019050919050565b600060208201905081810360008301526125b181612575565b9050919050565b7f496e76616c696420706c616e0000000000000000000000000000000000000000600082015250565b60006125ee600c83611adf565b91506125f9826125b8565b602082019050919050565b6000602082019050818103600083015261261d816125e1565b9050919050565b7f5061796d656e74206661696c6564000000000000000000000000000000000000600082015250565b600061265a600e83611adf565b915061266582612624565b602082019050919050565b600060208201905081810360008301526126898161264d565b9050919050565b7f46656520746f6f20686967680000000000000000000000000000000000000000600082015250565b60006126c6600c83611adf565b91506126d182612690565b602082019050919050565b600060208201905081810360008301526126f5816126b9565b9050919050565b600061270782611a71565b91507fffffffffffffffffffffffffffffffffffffffffffffffffffffffffffffffff8203612739576127386123e9565b5b600182019050919050565b60008190508160005260206000209050919050565b60006020601f8301049050919050565b600082821b905092915050565b6000600883026127a67fffffffffffffffffffffffffffffffffffffffffffffffffffffffffffffffff82612769565b6127b08683612769565b95508019841693508086168417925050509392505050565b60006127e36127de6127d984611a71565b611cda565b611a71565b9050919050565b6000819050919050565b6127fd836127c8565b612811612809826127ea565b848454612776565b825550505050565b600090565b612826612819565b6128318184846127f4565b505050565b5b818110156128555761284a60008261281e565b600181019050612837565b5050565b601f82111561289a5761286b81612744565b61287484612759565b81016020851015612883578190505b61289761288f85612759565b830182612836565b50505b505050565b600082821c905092915050565b60006128bd6000198460080261289f565b1980831691505092915050565b60006128d683836128ac565b9150826002028217905092915050565b6128ef82611ad4565b67ffffffffffffffff81111561290857612907611efa565b5b6129128254612250565b61291d828285612859565b600060209050601f831160018114612950576000841561293e578287015190505b61294885826128ca565b8655506129b0565b601f19841661295e86612744565b60005b8281101561298657848901518255600182019150602085019450602081019050612961565b868310156129a3578489015161299f601f8916826128ac565b8355505b6001600288020188555050505b505050505050565b600060208201905081810360008301526129d28184611b2b565b905092915050565b60006080820190506129ef6000830187611bc0565b8181036020830152612a018186611b2b565b9050612a106040830185611bc0565b612a1d6060830184611bc0565b95945050505050565b6000604082019050612a3b6000830185611bb1565b612a486020830184611bc0565b9392505050565b7f496e76616c696420736572766963652f706c616e000000000000000000000000600082015250565b6000612a85601483611adf565b9150612a9082612a4f565b602082019050919050565b60006020820190508181036000830152612ab481612a78565b9050919050565b6000606082019050612ad06000830186611bc0565b612add6020830185611bc0565b612aea6040830184612167565b949350505050565b6000819050919050565b612b0581612af2565b8114612b1057600080fd5b50565b600081519050612b2281612afc565b92915050565b600060208284031215612b3e57612b3d611a67565b5b6000612b4c84828501612b13565b91505092915050565b7f496e76616c696420707269636520666565640000000000000000000000000000600082015250565b6000612b8b601283611adf565b9150612b9682612b55565b602082019050919050565b60006020820190508181036000830152612bba81612b7e565b9050919050565b6000612bcc82611a71565b9150612bd783611a71565b9250828202612be581611a71565b91508282048414831517612bfc57612bfb6123e9565b5b5092915050565b7f4e487b7100000000000000000000000000000000000000000000000000000000600052601260045260246000fd5b6000612c3d82611a71565b9150612c4883611a71565b925082612c5857612c57612c03565b5b82820490509291505056fea26469706673582212204566f20339e48824cd6699b22c002844bfd6fef272a6b961fd06a34fcac96c8264736f6c634300081c0033",
  "linkReferences": {},
  "deployedLinkReferences": {}
}